:020000040800F2
:10000000680500209D0100080B190008F116000882
:1000100009190008230400089D20000800000000C2
:100020000000000000000000000000002F19000880
:1000300025040008000000002D19000831190008EF
:10004000B7010008B7010008B7010008B7010008B0
:10005000B7010008B701000827040008B70100082D
:10006000B7010008B7010008B7010008B701000890
:10007000B7010008B7010008B7010008B701000880
:10008000B7010008B7010008B7010008B701000870
:10009000B7010008B7010008B7010008B701000860
:1000A000B7010008B70100080D1A0008B7010008E1
:1000B000B7010008B7010008B7010008B701000840
:1000C000B7010008B7010008B7010008B701000830
:1000D000B701000891200008B7010008B701000827
:1000E000B7010008B7010008B7010008B701000810
:1000F000B7010008B7010008B7010008B701000800
:10010000B7010008B7010008B7010008B7010008EF
:10011000B7010008B7010008B7010008B7010008DF
:10012000B7010008B7010008B7010008B7010008CF
:10013000B7010008B7010008B7010008B7010008BF
:10014000B7010008B7010008B7010008B7010008AF
:10015000B7010008B7010008B7010008B70100089F
:10016000B7010008B7010008B7010008B70100088F
:10017000B7010008B7010008B7010008000000003F
:10018000B7010008B7010008DFF80CD000F0D6F87E
:10019000004800473D2400086805002006488047C5
:1001A00006480047FEE7FEE7FEE7FEE7FEE7FEE75C
:1001B000FEE7FEE7FEE7FEE7B9190008890100083F
:1001C0002DE9F05F0546002092469B46884606468C
:1001D000814640241BE0284641464746224600F01F
:1001E00064F853465A46C01A914110D31146184636
:1001F000224600F04BF82D1A67EB01084F462246C5
:100200000120002100F042F817EB00094E41201EAA
:10021000A4F10104DFDC484631462A464346BDE8E6
:10022000F09FD2B201E000F8012B491EFBD27047CB
:100230000022F6E710B513460A4604461946FFF7B2
:10024000F0FF204610BD70B5064601F03DFF046882
:1002500005460A220021304600F037F82C6070BDB8
:1002600030B50B46014600202022012409E021FA86
:1002700002F59D4205D303FA02F5491B04FA02F583
:100280002844151EA2F10102F1DC30BD202A04DB56
:10029000203A00FA02F1002070479140C2F1200399
:1002A00020FA03F3194390407047202A04DB203AD8
:1002B00021FA02F00021704721FA02F3D040C2F186
:1002C000200291400843194670472DE9F0479146B6
:1002D0000F4680460446002614F8015B2DB100F05D
:1002E0003FF80068405DC007F6D12B2D02D02D2DC0
:1002F00018D0641E4A463946204600F035F827B12A
:100300003968A14201D1C7F8008071054FF002049D
:100310000BD54042002803DD01F0D6FE0460A007A3
:10032000BDE8F08746F48066E4E70028F8DA01F0DB
:10033000CBFE04606FF00040F2E70000064C074D72
:1003400006E0E06840F0010394E8070098471034A5
:10035000AC42F6D3FFF71CFF8C250008AC25000843
:1003600000487047882500082DE9F05F8246007834
:10037000002715468B460AF10104B946302801D002
:100380009DB113E014F8010B0127782803D05828F9
:1003900001D045B10AE00DB1102D07D1002710257D
:1003A00014F8010B02E0082500E00A250026B046FB
:1003B0000EE005FB080005FB06F1012701EB1046E6
:1003C0001FFA80F8B6F5803F00D3B94614F8010B48
:1003D000294600F018F80028EBDABBF1000F05D031
:1003E0000FB1641E00E05446CBF80040B9F1000F95
:1003F00006D001F069FE02210160C81EBDE8F09F31
:1004000048EA0640FAE73A2800D2303820F02002C5
:10041000412A01D3A2F13700884201D34FF0FF30C7
:100420007047FEE77047012000F014B890F83510CF
:10043000022903D08021416501207047052180F801
:1004400035100068016821F001010160002070474B
:1004500070470000044910B50A68024202D00860E3
:10046000FFF7F6FF10BD0000143C01402DE9F84FE6
:10047000DFF87CB100224FF001084FF0030A4FF083
:100480000F090BF1040E00BF0B6808FA02F42340B9
:10049000A3426ED14D68022D01D0122D0ED1D50888
:1004A00000EB850CDCF820505607F70E09FA07F62A
:1004B000B5430E69BE402E43CCF820600668550057
:1004C0000F790AFA05FC07F0030726EA0C06AF408D
:1004D000374307604E68012E05D0022E03D0112E3F
:1004E00001D0122E0ED18668CF6826EA0C06AF40E6
:1004F000374387604668A6430C79C4F300149440E0
:1005000034434460C6688C6826EA0C06AC40344329
:10051000C4604C68E40065D5364C256845F48045D8
:100520002560246822F0030504F480440094324CD2
:100530002E19D6F8084895072F0F09FA07F5AC438E
:100540002E4DA84201D1002524E02D4DA84201D115
:1005500001251FE02B4DA84201D102251AE02A4DAA
:10056000A84201D1032515E0284DA84202D1042557
:1005700010E037E0264DA84201D105250AE0254DBF
:10058000A84201D1062505E0234DA84201D1072547
:1005900000E00825BD402543C6F80858DBF80040B8
:1005A0005D464E689C43F60300D51C432C60DEF884
:1005B000004075464E689C43B60300D51C432C6032
:1005C0000B4D08352C684E689C43F60200D51C4341
:1005D0002C60074D0C352C684E689C43B60200D544
:1005E0001C432C60521C102AFFF44EAFBDE8F88F5C
:1005F000003C01404438024000300140000002400D
:100600000004024000080240000C024000100240BA
:100610000014024000180240001C024042694A4097
:10062000426170470AB1816170470904FBE700002D
:10063000014880687047000004000020024881687B
:100640000278114481607047040000200B4810B507
:10065000016841F400710160016841F4806101604A
:10066000016841F480710160032000F06FF8002000
:1006700000F006F800F024F8002010BD003C024015
:1006800070B50D4D04464FF47A712878B1FBF0F047
:100690000A490968B1FBF0F000F054FB48B9102C8E
:1006A00007D200222146501E00F030F800206C6076
:1006B00070BD012070BD000004000020100000206B
:1006C0000B4882B0016841F480410160006800F489
:1006D000804000900648001F016841F08051016091
:1006E000006800F080500090072002B000F02EB8A3
:1006F0004438024000F01F0201219140400980006F
:1007000000F1E020C0F8001170470000F0B40E4B7B
:100710001B680C46C3F30223C3F10705042D00D95F
:100720000425191D072901D2002300E0DB1E012644
:1007300006FA05F1491E214099409E40761E16405A
:100740003143F0BC01F0E2B80CED00E0064900F0E6
:10075000070208684FF6FF03184040EA0220034AE8
:1007600010430860704700000CED00E00000FA053F
:100770002DE9F0470E46050065D0DFF81481D8F862
:100780000000F7B200F00F00B04207D288F8007006
:10079000D8F8000000F00F00B04254D128683D4C5A
:1007A000810712D5400703D5206840F4E05020604F
:1007B0002878000703D5206840F460402060206856
:1007C000A96820F0F000084320602878C0072DD0E9
:1007D000304968680839012812D0022813D003284C
:1007E00011D00968890700292DDA216821F0030159
:1007F00001432160FFF71CFF814641F2883A0EE079
:1008000009688903EFE709688901ECE7FFF710FF42
:10081000A0EB0901514502D90320BDE8F08720680B
:10082000696800F00C00B0EB810FEFD1D8F8001030
:10083000404601F00F01B14207D90770006800F08F
:100840000F00B04201D00120E7E72878400705D526
:100850002068E96820F4E050084320602878000709
:1008600006D52068296920F4604040EAC100206074
:1008700000F036F82168084AC1F30311515CC84002
:10088000064908600020FFF7FBFE0020C5E70000D6
:10089000003C024008380240EC2400081000002010
:1008A0000448054900680968044AC1F38221515C83
:1008B000C84070471000002008380240FC2400089F
:1008C0000448054900680968044AC1F34231515C93
:1008D000C84070471000002008380240FC2400087F
:1008E000154810B5006810F00C02144813D04110E0
:1008F000042A0FD0082A0ED10F4C241F2268236827
:1009000002F03F025B0207D52068C0F38810A0FB0D
:10091000010106E0084610BD2168C1F38811A1FB62
:1009200000010023FFF74CFC2168C1F30141491C81
:100930004900B0FBF1F010BD083802400024F4007B
:100940002DE9F84F050076D02878DFF8F8B2BE4CD4
:10095000C00749D0DBF800105846C1F381010129D6
:1009600008D00068C0F3810002280AD1201D006869
:10097000400206D52068800336D568680028E2D09A
:1009800032E06868B0F5803F10D0B0F5A02F206845
:1009900010D020F480302060206820F48020206077
:1009A0006868A0B1FFF744FE06460CE0206840F4FA
:1009B0008030F4E740F480202060F7E7FFF738FE4E
:1009C000801B642873D820688003F7D50CE0FFF7FC
:1009D0002FFE064605E000BFFFF72AFE801B6428B5
:1009E000F0D820688003F7D42878DFF86082800789
:1009F0004FF000093ED5DBF80010584611F00C0FFF
:100A000009D00068C0F3810002280BD18D48001F77
:100A10000068400206D42068800715D5E8680128E0
:100A200009D111E0E868B8B10120C8F80000FFF76B
:100A3000FFFD064605E002E1FFF7FAFD801B0228F4
:100A4000C0D820688007F7D52068296920F0F80011
:100A500040EAC10020600DE0C8F80090FFF7E8FD13
:100A6000064604E0FFF7E4FD801B02281FD820683B
:100A70008007F7D42878000722D5724E7448696938
:100A80006C3671B101210160FFF7D2FD074604E029
:100A9000FFF7CEFDC01B022809D830688007F7D5C4
:100AA0000EE0C0F80090FFF7C3FD074605E083E0C5
:100AB000FFF7BEFDC01B02287ED830688007F7D440
:100AC0002878400768D5DFF87CA100270AF1380AAA
:100AD000DAF80000C0000BD4DAF8001041F08051C1
:100AE000CAF80010DAF80000012700F080500090EA
:100AF000584E3068C00510D4306840F480703060C3
:100B0000FFF796FD009005E0FFF792FD0099401A6F
:100B1000022851D83068C005F6D54A4EA868683614
:100B200001280FD00528306810D020F00100306077
:100B3000306820F004003060A868B8B1FFF778FD95
:100B400000900FE0306840F00100F4E740F004004E
:100B50003060F7E7FFF76CFD0099411A41F28830E9
:100B6000814264D830688007F4D50EE0FFF760FD5D
:100B7000009007E0FFF75CFD0099411A41F28830D0
:100B8000814254D830688007F4D42FB1DAF80010CD
:100B900021F08051CAF80010A869C0B3DBF800103A
:100BA000C1F3810102294AD00228484607D0C8F87B
:100BB0006000FFF73DFD00E039E005463AE04746BA
:100BC000C8F86000FFF734FD064604E0FFF730FD8B
:100BD000801B02282BD820688001F7D4D5E90701B3
:100BE0000843A96A1C4A490802EB01416A6A41EAC2
:100BF0008211084395F82C1040EA01611148001F4A
:100C0000016001203866FFF713FD054605E014E09A
:100C1000FFF70EFD401B022809D820688001F7D598
:100C20000BE000BFFFF704FD401B022802D90320A0
:100C3000BDE8F88F20688001F4D40020F8E7012097
:100C4000F6E7000008380240003802400000474242
:100C5000800E4742007000400000FFFF70B50400A6
:100C600005D00025A56294F8510010B106E00120DE
:100C700070BD84F85050204600F030F8022084F80F
:100C800051002068016821F040010160D4E90101B0
:100C90000843D4E903121143084361690843218BD7
:100CA00001F400710843E1690843216A0843A16A1D
:100CB000084321680860A069042101EA1040616AC4
:100CC0000843216848602068C16921F40061C1615E
:100CD0006565012084F85100002070BD10B586B014
:100CE000044614216846FFF7A3FA13492068884296
:100CF00020D112480021026842F48052026000684C
:100D000000F4805005900D481438026842F001024A
:100D10000260006800F001000590E02000900220D1
:100D2000CDE90101032003900520049069460448A1
:100D3000FFF79CFB06B010BD003001404438024074
:100D40000000024010B5401EB0F1807F01D30120A9
:100D500010BD4FF0E02460610F21601700F0D6FD58
:100D60000020A06107202061002010BD704770475F
:100D700030B590F83820012A20D0012280F83820A0
:100D8000022380F8393003685C6824F070045C60EA
:100D900003685C680D682C435C6003689C6824F001
:100DA00080049C6003689C6849680C439C6080F8E0
:100DB0003920002180F83810084630BD022030BDAF
:100DC00010B5040003D094F8390010B107E00120F9
:100DD00010BD002084F83800204600F00DF80220F5
:100DE00084F83900211D206800F016FE012084F8E7
:100DF0003900002010BD000008B501681748B1F1A6
:100E0000804F0BD0164A914210D1016841F0040185
:100E10000160006800F00400009008BD016841F026
:100E200001010160006800F00100F5E70D48814212
:100E3000F3D10A48001D016841F480210160006877
:100E4000002200F48020009011461A20FFF75EFC7B
:100E5000BDE808401A20FFF74DBC000040380240B2
:100E600000080040004801400168CA6842F00102E1
:100E7000CA600068016841F001010160002070470C
:100E800070B5044690F83800012817D0012584F881
:100E90003850022084F839002068826822F07702F6
:100EA00022F47F4282600868502837D00DDC202869
:100EB00059D005DC88B3102841D151E0022070BD23
:100EC000302853D040283AD13FE060282ED07028F7
:100ED0000BD0B0F5805F03D0B0F5005F2FD110E0EC
:100EE0002068816821F0070115E0CB68D1E9012174
:100EF000206800F0FCFD2168886840F07700886079
:100F00001DE0CB68D1E90121206800F0F0FD2068E8
:100F1000816841F48041816011E01EE0CA6849683F
:100F2000206800F0ADFE5021206806E0CA684968DC
:100F3000206800F0B6FE6021206800F0E2FD84F831
:100F40003950002084F8380070BDCA6849682068AC
:100F500000F096FE40212068EFE700212068ECE7D2
:100F600010212068E9E720212068E6E73021206889
:100F7000E3E7704770B50446006801694FF000056B
:100F8000C943890715D4C168C943890711D4E91E2B
:100F9000016101202076206880698007204602D008
:100FA000FFF7E7FF04E000F0D9F8204600F05BF916
:100FB000257620680169C943490717D4C168C94328
:100FC000490713D46FF004010161022020762068E4
:100FD000806910F4407F204602D0FFF7CAFF04E08A
:100FE00000F0BCF8204600F03EF925762068016943
:100FF000C943090716D4C168C943090712D46FF061
:1010000008010161042020762068C069800720461D
:1010100002D0FFF7AEFF04E000F0A0F8204600F099
:1010200022F9257620680169C943C90617D4C16829
:10103000C943C90613D46FF010010161082020765E
:101040002068C06910F4407F204602D0FFF791FF6E
:1010500004E000F083F8204600F005F925762068CA
:101060000169C943C90708D1C168C943C90704D187
:10107000891E0161204600F013F920680169C94307
:10108000090609D4C168C943090605D46FF0800177
:1010900001612046FFF76AFE20680169C9434906DD
:1010A00009D4C168C943490605D46FF04001016104
:1010B000204600F0F6F820680169C94389060BD480
:1010C000C168C943890607D46FF020010161204639
:1010D000BDE87040FFF74BBE70BD000030B587B073
:1010E000044614216846FFF7A3F824680021174836
:1010F00002221223B4F1804F16D0154DAC4211D10B
:10110000046844F008040460006800F008000590DA
:1011100050030090CDE90131CDE9031269460D4835
:10112000FFF7A4F907B030BD046844F0010404607F
:101130000068009200F001000590CDE90131012026
:10114000CDE9031069460448EAE700003038024060
:1011500000080040000C024000000240704770B5DB
:10116000044690F838000D4601280DD0012684F879
:101170003860022084F8390042B1042A18D0082AC5
:101180002AD00C2A4DD139E0022070BD206800F031
:10119000C1FC2068816941F0080181612068816992
:1011A00021F004018161206881692A69114311E0FD
:1011B000206800F0DBFC2068816941F400618161F6
:1011C0002068816921F480618161206881692A69D0
:1011D00041EA0221816124E0206800F0F9FC2068E6
:1011E000C16941F00801C1612068C16921F00401B1
:1011F000C1612068C1692A69114311E0206800F0CB
:1012000017FD2068C16941F40061C1612068C169AE
:1012100021F48061C1612068C1692A6941EA022123
:10122000C16184F83960002084F8380070BD10B5C1
:10123000040003D094F8390010B107E0012010BD7C
:10124000002084F83800204600F00CF8022084F8D2
:101250003900211D206800F0DFFB012084F83900EF
:10126000002010BD7047704710B504460068012289
:1012700000F032FC08492068884202D007498842C1
:1012800003D1416C41F4004141642068016841F0A0
:1012900001010160002010BD000001400004014078
:1012A000704770477047000070B5026804461068C8
:1012B000D168536910F00F0F50D003F0010501F40D
:1012C000907635435DD0C20705D0CA0503D5E26BE1
:1012D00042F00102E263420705D5DA0703D0E26B70
:1012E00042F00202E263820705D5DA0703D0E26B1F
:1012F00042F00402E263020705D5DA0703D0E26B8D
:1013000042F00802E263E26B002A33D0800604D583
:10131000880602D5204600F0ECFC20684069E16BAD
:10132000C0F38010090700D428B3204600F0D3FC96
:101330002068416949061AD5416921F0400141619F
:10134000606BA0B11B490165606BFFF76FF8002867
:1013500010D0606B016DBDE870400847830610D562
:101360008B060ED52046BDE8704000F0C2BC20467A
:10137000FFF798FF70BD2046FFF794FF0020E06361
:1013800070BD030606D50B0604D52046BDE87040A7
:1013900000F04CBE4006F3D54806F1D5D168204692
:1013A00021F04001D160202184F8391000F09FF92C
:1013B00070BD0000C71C000870B5040004D094F88C
:1013C0003900002510B106E0012070BD84F83850C6
:1013D000204600F023F8242084F839002068C168F2
:1013E00021F40051C160204600F0CAFC2068016968
:1013F00021F4904101612068416921F02A01416195
:101400002068C16841F40051C160E563202084F880
:10141000390084F83A00002070BD000010B586B095
:10142000044614216846FEF703FF174920688842E6
:1014300028D11648016841F010010160006800F0F1
:101440001000059011481438016841F00201016054
:101450000068694600F002000590C020009002205C
:101460000190012002900320039007200490084877
:10147000FEF7FCFF002211462520FFF747F9252043
:10148000FFF738F906B010BD0010014044380240A3
:101490000004024090F83A30202B1DD1D1B1CAB1DE
:1014A00090F83830012B17D081628285C2850021E7
:1014B000C163222280F83A2080F8381001684A6916
:1014C00042F001024A610068C16841F49071C16054
:1014D00000207047012070470220704730B5344823
:1014E0008DB010F8015B10F8014BFEF7ACFE6422E2
:1014F000532D06D0732D04D0542D3AD0742D38D0EE
:1015000022E02C49462C06D0662C04D0522C0DD05B
:10151000722C0BD018E04FF4AA73584390FBF2F0F2
:10152000C0F5397008600A6823A109E04FF4AA7376
:10153000584390FBF2F000F5397008600A682AA160
:10154000684600F0ADFD03E033A1684600F0A8FD59
:1015500082B269463C4800F0ABF8042214493A488C
:10156000FFF798FF4FF400413848FFF757F80DB0E8
:1015700030BD4FF08041522C0FD0722C0DD04C2C2E
:1015800001D06C2CE0D1C0EB0010400090FBF2F0D9
:10159000383088638A6B2EA1D2E7C0EB0010400080
:1015A00090FBF2F0C0F1380088638A6B34A1C7E782
:1015B000000000203C080040576C617A6C207720C6
:1015C000696661207A20277844272C206120776182
:1015D00072746F7363204343523320746F20272546
:1015E00064272E0A0D000000576C617A6C2077206A
:1015F000696661207A20275352272C206120776169
:1016000072746F736320737065656420746F202734
:101610002564270A0D0000004F64656272616E61E7
:1016200020776961646F6D6F7363207A6177696594
:101630007261206E69657A6E616E65207A6E616B8B
:1016400069210A0D0000000024010020000C024066
:10165000576C617A6C207720696661207A20275464
:101660004C272C206120776172746F736320434391
:10167000523220746F20272564272E0A0D000000A7
:10168000576C617A6C207720696661207A20275434
:1016900052272C206120776172746F73632043435B
:1016A000523220746F20272564270A0D00000000A5
:1016B00090F83930202B18D1A9B1A2B190F8383068
:1016C000012B12D001628284C2840021C1632122D5
:1016D00080F8392080F838100068C16841F0800136
:1016E000C16000207047012070470220704770479A
:1016F000FEE700002DE9F04387B014216846FEF7AD
:1017000097FD33480024016841F010010160016831
:1017100001F010010591016841F0010101600168CB
:1017200001F001010591016841F0080101600168C3
:1017300001F008010591016841F0020101600068B3
:10174000DFF8909000F00200059000220821484642
:10175000FEF768FF204F4FF410460022314638460E
:10176000FEF760FFDFF87480002210214046FEF78C
:1017700059FF082000900125CDE9015469464846EB
:101780000394FEF773FE0096CDE90154694638468E
:101790000394FEF76BFE10200090CDE901546946DA
:1017A00040460394FEF762FE0D480095CDE9010422
:1017B00069464846FEF75AFE002211460620FEF70B
:1017C000A5FF0620FEF796FF07B0BDE8F0830000F6
:1017D0003038024000100240000C02400004024079
:1017E000000011100B480A494FF4007201604FF4D9
:1017F0008271416000218160C1600161C0E9051210
:10180000C1610162416281620A21C162FFF726BAA9
:10181000003001401800002010B58EB0002407945D
:10182000089409940A940B941C2168460C94FEF7C2
:10183000FFFC16484FF08041016040F28F61C0E923
:10184000011440F2E731C0E90314FFF7B9FA4FF48D
:101850008050079007A90D48FFF712FB0B48FFF7D0
:10186000E6FC0B940BA909480C94FFF781FA602061
:10187000CDE9000402940422694604480494FFF769
:101880006EFC0248FFF72AFC0EB010BD700000206D
:1018900010B58EB000240794089409940A940B9410
:1018A0001C2168460C94FEF7C3FC164814490160DD
:1018B000A721C0E9011442F20F71C0E90314FFF738
:1018C0007FFA4FF48050079007A90E48FFF7D8FA27
:1018D0000C48FFF7ACFC0B940BA90A480C94FFF7DB
:1018E00047FA6020CDE900040294082269460548C1
:1018F0000494FFF734FC0348FFF7F0FB0EB010BD73
:1019000000080040AC000020FEE770470907090E00
:10191000002806DA00F00F0000F1E02080F8141D26
:10192000704700F1E02080F800147047704770475E
:10193000FEF784BE30B593B030216846FEF778FCE0
:1019400014210CA8FEF774FC19480025016841F029
:1019500080510160006800F08050119015480168C6
:1019600041F4804101600068022400F4804011903D
:101970000120039010200490009406940820CDE9E3
:101980000750A820CDE9090407200B906846FEF710
:10199000D7FF0CA90F2081E831004FF4A0500F9021
:1019A000E002109005210CA8FEF7E2FE13B030BD56
:1019B00040380240007000401048016841F4700156
:1019C00001600F48016841F0010101600C4A0021EB
:1019D0000832116002680B4B1A400260031D0A4A6C
:1019E0001A60026822F48022026005480C3001600F
:1019F00002495806803908607047000088ED00E011
:101A000000380240FFFFF6FE103000240148FFF7C7
:101A1000B1BA0000E8000020F0B50268234B244D65
:101A2000244E254F254C4FF0804C984209D06045FC
:101A300007D0A84205D0B04203D0B84201D0A0429E
:101A400004D122F0700E4A6842EA0E0298421BD07E
:101A5000604519D0A84217D0B04215D0B84213D073
:101A6000A04211D0164DA8420ED0164DA8420BD060
:101A7000154DA84208D0154DA84205D0144DA842D6
:101A800002D0144DA84203D122F44075CA682A43FB
:101A900002608A68C2620A688262984201D0A042EB
:101AA00001D10969016301214161F0BD00000140DC
:101AB0000004004000080040000C00400004014009
:101AC000004001400044014000480140001800402F
:101AD000001C00400020004010B50123046A8B4028
:101AE0009C430462036A8A401343036210BD10B52D
:101AF000846842EA032224F47F440A43224382603A
:101B000010BD826822F070020A4342F00701816032
:101B10007047000030B5026A22F001020262026AD8
:101B2000436884690D6824F07304254322F002049D
:101B30008A6822430B4CA04202D00B4CA0420BD12E
:101B400022F00804CA6823F4407322434C6922F04F
:101B500004021C438B6923434360856149684163E8
:101B6000026230BD000001400004014030B5026A4D
:101B700022F010020262026A436884690D6824F44C
:101B8000E64444EA05248D6822F0200242EA051268
:101B90000D4DA84202D00D4DA8420ED1CD6822F0C5
:101BA000800242EA05124D6923F4406343EA85034B
:101BB0008D6922F0400243EA8503436084614968ED
:101BC0008163026230BD000000000140000401405A
:101BD00030B5026A22F480720262036A4268C46904
:101BE00023F4007324F073050C682C438D6843EADA
:101BF00005230D4DA84202D00C4DA8420ED1CD6850
:101C000023F4006343EA05234D6922F4405242EA7B
:101C100005128D6923F4806342EA05124260C461B3
:101C20004968C163036230BD000001400004014007
:101C300030B5026A22F480520262046A4268C369C3
:101C40000D6823F4E64343EA05238D6824F4005429
:101C500044EA0534084DA84202D0084DA84204D1F8
:101C60004D6922F4804242EA85124260C3614968AC
:101C70000164046230BD0000000001400004014026
:101C800010B5036A046A24F001040462846924F034
:101C9000F00444EA021423F00A020A438461026257
:101CA00010BD10B5036A23F0100303628369046A50
:101CB00023F4704343EA023224F0A00343EA011103
:101CC0008261016210BD10B5806B0021C185C184A5
:101CD000FFF7E8FA10BD0168CA6822F49072CA6082
:101CE00001684A6922F001024A61202180F83A1015
:101CF000704710B590F83A10222901D0022010BD8B
:101D00008168B1F5805F11D00169002901681FD099
:101D1000496801F07F03816A4A1C82620B70C18DA1
:101D2000491E0904090CC18518D026E00269816AA0
:101D3000002A0268526805D0D2B20A80816A491C22
:101D40008162ECE7C2F308020A80816A891CF7E726
:101D50004A68816A4B1C83620A70E0E70168CA68BE
:101D600022F49072CA6001684A6922F001024A6155
:101D7000202180F83A10FFF7B1FB002010BD0000D1
:101D80002DE9F04104460068016921F44052E16800
:101D9000114301612168C86849F20C6290432369CC
:101DA000A268E5691A4363692B431A430243CA6078
:101DB0002168486920F44072A06910434861E169D4
:101DC0006425B1F5004F9748974A21684FF03208D3
:101DD0003FD0914201D081427CD1FEF771FD00EBF2
:101DE000C00101EB001061688900B0FBF1F6FEF75D
:101DF00067FD00EBC00101EB001061688900B0FBDA
:101E0000F1F0B0FBF5F06FF01801484306EB8001EC
:101E100008EB0110B0FBF5F000F0F006FEF750FD06
:101E200000EBC00101EB001061688900B0FBF1F02C
:101E3000B0FBF5F006EB0016FEF742FD00EBC0012B
:101E400001EB001061688900B0FBF1F7FEF738FD87
:101E5000D2E0914201D081423DD1FEF731FD00EB4D
:101E6000C00101EB001061684900B0FBF1F0B0FB6C
:101E7000F5F00601FEF724FD00EBC00101EB0010B8
:101E800061684900B0FBF1F7FEF71AFD00EBC001F5
:101E900001EB001061684900B0FBF1F0B0FBF5F018
:101EA0006FF01801484307EB800108EBC100B0FB5D
:101EB000F5F000F0F80006EB4006FEF701FD00EB40
:101EC000C00101EB001061684900B0FBF1F7FEF7BB
:101ED000F7FC3CE055E0FEF7E3FC00EBC00101EB52
:101EE000001061684900B0FBF1F0B0FBF5F00601AD
:101EF000FEF7D6FC00EBC00101EB00106168490061
:101F0000B0FBF1F7FEF7CCFC00EBC00101EB0010D9
:101F100061684900B0FBF1F0B0FBF5F06FF018011B
:101F2000484307EB800108EBC100B0FBF5F000F07F
:101F3000F80006EB4006FEF7B3FC00EBC00101EB36
:101F4000001061684900B0FBF1F7FEF7A9FC00EB57
:101F5000C00101EB001061684900B0FBF1F0B0FB7B
:101F6000F5F06FF01801484307EB800108EBC10062
:101F7000B0FBF5F000F00700216830448860BDE850
:101F8000F081FEF78DFC00EBC00101EB00106168F1
:101F90008900B0FBF1F6FEF783FC00EBC00101EB1A
:101FA000001061688900B0FBF1F0B0FBF5F06FF054
:101FB0001801484306EB800108EB0110B0FBF5F077
:101FC00000F0F006FEF76CFC00EBC00101EB001026
:101FD00061688900B0FBF1F0B0FBF5F006EB00168C
:101FE000FEF75EFC00EBC00101EB001061688900A8
:101FF000B0FBF1F7FEF754FC00EBC00101EB001061
:1020000061688900B0FBF1F0B0FBF5F06FF01801EA
:10201000484307EB800108EB0110B0FBF5F000F03E
:102020000F00A9E7001401400010014090F839109A
:10203000212901D0022070478168B1F5805F016AD3
:102040000BD04A1C0262026809785160C18C491E9B
:102050000904090CC1840ED017E009880268C1F395
:102060000801516001690029016A02D0491C01621E
:10207000ECE7891CFBE70168CA6822F08002CA60AD
:102080000068C16841F04001C16000207047000055
:102090000148FFF709B9000024010020FEE7000015
:1020A0000FB4084B10B504A902AA039800F020F859
:1020B000044602A9002000F0BCF9204610BC5DF8DF
:1020C00014FB00003324000800487047140000206F
:1020D00002E008C8121F08C1002AFAD170477047F1
:1020E000002001E001C1121F002AFBD1704700004F
:1020F0002DE9FF4F8BB088460546002606E02528CF
:102100000BD0DDE90D1290476D1C761C2878002855
:10211000F5D10FB03046BDE8F08F0024A146A246AD
:102120000122AE4900E0044315F8013F203B02FACA
:1021300003F00842F7D128782A2810D06FF02F0238
:102140002878A0F13001092915D809EB890102EBA3
:10215000410144F0020400EB01096D1CF0E758F85E
:10216000041B5FEA010903D544F40054C9F10009D6
:1021700044F002046D1C28782E2817D115F8010FA1
:1021800044F004042A280ED06FF02F022878A0F122
:10219000300109290AD80AEB8A0102EB410100EB60
:1021A000010A6D1CF2E758F804AB6D1C28786C2806
:1021B0000FD006DC4C2817D068280DD06A2814D11F
:1021C00004E0742810D07A280FD10DE044F40014F4
:1021D0000AE044F4801401E044F440146978814238
:1021E00002D104F580146D1C6D1C2878692865D017
:1021F00006DC00288DD0632827D0642806D15DE056
:102200006E2808D073282AD0752877D0DDE90D1202
:102210009047761CE0E0C4F30250022809D003285E
:102220000DD0D8F8001004280DD00E6008F1040875
:10223000D2E0D8F80010F217C1E90062F6E7D8F84A
:1022400000100E80F2E70E70F0E718F8041B8DF80E
:10225000001000208DF80100EB46012003E058F843
:1022600004BB4FF0FF3061074FF0000701D40AE0D4
:102270007F1C57450DDA8742FADB1BF8071000294F
:10228000F6D106E07F1C8742FCDB1BF80710002913
:10229000F8D1DDE90D23A9EB07008146214600F0C6
:1022A000B1F83044C61904E0DDE90D121BF8010B4A
:1022B00090477F1EF8D22146484688E058F8040B24
:1022C000C4F302514FF00A0B032900D100B20429D4
:1022D00000D140B2002802DA40422D2102E021055F
:1022E00005D52B218DF82410012104E006E0E1073B
:1022F00010D02021F6E708AF089113E058F8040B3E
:10230000C4F302514FF00A0B032900D180B2042913
:1023100000D1C0B20021EEE75946FDF7A1FF3031F0
:1023200007F8011D0028F7D1ADEB070000F1200BE5
:10233000600702D524F4803401E04FF0010ADA4549
:1023400002DDAAEB0B0000E00020824600EB0B014F
:1023500008980144A9EB01000A90E00306D4DDE9E6
:102360000D2321460A9800F04DF806444FF000096D
:1023700008E009A911F80900DDE90D12904709F1FB
:102380000109761C08998945F3DBE0030CD5DDE9EA
:102390000D2321460A9800F035F8064404E0DDE9F3
:1023A0000D1230209047761CBAF10001AAF1010A03
:1023B000F5DC05E0DDE90D1217F8010B9047761CFE
:1023C000BBF10001ABF1010BF4DC0A982146DDE919
:1023D0000D2300F005F806446D1C97E6092801005E
:1023E0002DE9F041044600251E461746880404D412
:1023F00005E039462020B0476D1C641EF9D52846FB
:10240000BDE8F0812DE9F041044600251E469046C6
:10241000C80301D5302700E02027880404D505E053
:1024200041463846B0476D1C641EF9D52846BDE8C4
:10243000F0810A68531C0B6010707047FEF706F9B4
:10244000FFF778FAFFF756F9FFF722FA22482149F9
:10245000002401604FF41651C0E901140C21C4603E
:10246000C0E904418461C461FEF7A6FF1A481B4914
:102470003C38016042F20F71C0E9011442F2CF0111
:10248000C0E90314FEF79CFCFFF7C6F9FFF7AAF9B1
:10249000114808217838FEF7E7FE0F480421B438C8
:1024A000FEF7E2FE0C483C38FEF7DEFC04220C4945
:1024B0000948FEF7EFFF0B494FF4397008604FF001
:1024C000804138208863012210210748FEF7AAF8CE
:1024D000FEE70000001001402401002000480140F8
:1024E000000000203C080040000402400000000002
:1024F00000000000010203040607080900000000B4
:1025000001020304004040404040404040404141FF
:1025100041414140404040404040404040404040B8
:102520004040404040050202020202020202020252
:10253000020202020220202020202020202020024F
:1025400002020202020290909090909010101010DF
:10255000101010101010101010101010101010107B
:10256000020202020202888888888888080808080F
:1025700008080808080808080808080808080808DB
:10258000020202024000000005250008AC250008F8
:102590000000002018000000D0200008C42500081A
:1025A0001800002050050000E02000080000000096
:1025B0000100000010000000000000000024F400F2
:0425C0000000000017
:040000050800018965
:00000001FF
